:1000000045C0000060C000005EC000005CC0000091
:1000100092C10000B9C10000E0C1000007C20000A9
:1000200052C0000050C000004EC000004CC0000094
:100030004AC0000024C2000046C0000044C00000C6
:1000400042C0000040C000003EC000002BC20000C3
:100050003AC0000038C0000036C0000034C00000C4
:1000600032C0000030C000002EC000002CC00000D4
:100070002AC0000028C0000026C0000024C00000E4
:1000800022C0000020C000001EC0000011241FBEBE
:10009000CFEFD0E4DEBFCDBF11E0A0E0B1E0E2E7FA
:1000A000F6E000E00BBF02C007900D92A030B10750
:1000B000D9F721E0A0E0B1E001C01D92A032B20763
:1000C000E1F75AD0D4C29CCF809100018530F1F481
:1000D000F89480910D0190910E01A0910F01B091C3
:1000E0001001482F8093110190931201A0931301E6
:1000F000B093140150911201609113017091140199
:100100008091150167D21092000178940895099AA0
:10011000219A399A519A08982098389852988FE3E2
:100120009CE90197F1F700C00000E8E6F0E080816B
:100130008F608083EBE6F0E0808181608083ECE675
:10014000F0E0808181608083EDE6F0E08081816075
:100150008083E3E7F0E0808184608083EFE6F0E075
:1001600080818260808380E593EC90938900809306
:100170008800109281000895CADF7894C4E08FE36C
:100180009CE90197F1F700C00000809100018230E6
:10019000D9F028F4882341F0813071F0F0CF83301A
:1001A000D9F0853009F1EBCFC0930001119A90E5A9
:1001B0009A95F1F71198E3CFC0930001299A80E551
:1001C0008A95F1F72998DBCFC0930001419A90E519
:1001D0009A95F1F74198D3CFC0930001599A80E5E1
:1001E0008A95F1F75998CBCF6FDFC9CFCF93DF93C3
:1001F000EC01413583EC58076105710528F0C35FB8
:10020000DE4F8FEF88830AC0CB01BA0124E432E0CD
:1002100040E050E00AD2C35FDE4F2883DF91CF91E8
:1002200008958130910569F11CF4892B49F00895F6
:100230008230910509F446C0039709F464C008951B
:10024000009B08C0109285001092840081E080938A
:1002500081000895109281004091840050918500A2
:1002600060E070E04093010150930201609303014C
:100270007093040180E090E0B9DF81E08093000199
:100280000895189B08C0109285001092840081E0A8
:1002900080938100089510928100409184005091D4
:1002A000850060E070E0409301015093020160938B
:1002B00003017093040181E090E098DF82E0809375
:1002C00000010895309B08C01092850010928400B0
:1002D00081E0809381000895109281004091840014
:1002E0005091850060E070E040930101509302015D
:1002F000609303017093040182E090E077DF83E074
:1003000080930001089589B110928100409184008A
:100310005091850060E070E040930101509302012C
:10032000609303017093040183E090E05FDF85E058
:100330008093000108951F920F920FB60F9211241F
:100340000BB60F922F933F934F935F936F937F93CF
:100350008F939F93AF93BF93EF93FF9380E090E0D1
:1003600060DFFF91EF91BF91AF919F918F917F914E
:100370006F915F914F913F912F910F900BBE0F9016
:100380000FBE0F901F9018951F920F920FB60F92ED
:1003900011240BB60F922F933F934F935F936F935C
:1003A0007F938F939F93AF93BF93EF93FF9381E0DE
:1003B00090E037DFFF91EF91BF91AF919F918F91C7
:1003C0007F916F915F914F913F912F910F900BBE55
:1003D0000F900FBE0F901F9018951F920F920FB69F
:1003E0000F9211240BB60F922F933F934F935F936D
:1003F0006F937F938F939F93AF93BF93EF93FF93ED
:1004000082E090E00EDFFF91EF91BF91AF919F915D
:100410008F917F916F915F914F913F912F910F90AD
:100420000BBE0F900FBE0F901F9018951F920F924A
:100430000FB60F9211240BB60F922F933F934F9349
:100440005F936F937F938F939F93AF93BF93EF933C
:10045000FF9383E090E0E5DEFF91EF91BF91AF91D4
:100460009F918F917F916F915F914F913F912F91CC
:100470000F900BBE0F900FBE0F901F9018951F92FC
:100480000F920FB60F9211248F93109281008091DA
:1004900000018F5F809300018F910F900FBE0F902E
:1004A0001F9018951F920F920FB60F9211240BB642
:1004B0000F922F933F934F935F936F937F938F93FD
:1004C0009F93AF93BF93EF93FF931ED0FF91EF9154
:1004D000BF91AF919F918F917F916F915F914F915C
:1004E0003F912F910F900BBE0F900FBE0F901F905A
:1004F0001895FC019C012B5F3F4F80E0919189276B
:10050000E217F307D9F7089580910501909106014C
:10051000069721F5109206011092050158988091D6
:100520001A018F3F79F040911601509117016091A7
:1005300018017091190180911A014CD08FEF8093AE
:100540001A01089540911B0150911C0160911D01F9
:1005500070911E0180911F0113C00895E091050163
:10056000F0910601E95FFE4F80818EBD809105010B
:1005700090910601019690930601809305010895DC
:100580000F931F93CF93DF9300D000D01F92CDB76E
:10059000DEB749835A836B837C838D8307E011E048
:1005A00089819A81AB81BC81F80180839183A28388
:1005B000B3838D818483C8019CDFF8018583A4DF28
:1005C0000F900F900F900F900F90DF91CF911F9190
:1005D0000F910895CF93DF9300D000D01F92CDB735
:1005E000DEB749835A836B837C838D831C9B0CC04D
:1005F000C7DF85E0FE013196ABE1B1E001900D92DD
:100600008A95E1F7589A09C085E0FE013196A6E186
:10061000B1E001900D928A95E1F70F900F900F9045
:100620000F900F90DF91CF910895A1E21A2EAA1B8F
:10063000BB1BFD010DC0AA1FBB1FEE1FFF1FA21792
:10064000B307E407F50720F0A21BB30BE40BF50B8F
:10065000661F771F881F991F1A9469F76095709518
:10066000809590959B01AC01BD01CF010895F89450
:02067000FFCFBA
:00000001FF
