:1000000045C0000060C000005EC000005CC0000091
:100010007CC10000A3C10000CAC10000F1C1000002
:1000200052C0000050C000004EC000004CC0000094
:100030004AC0000048C0000046C000000AC20000DC
:1000400042C0000040C000003EC0000010C20000DE
:100050003AC0000038C0000036C0000034C00000C4
:1000600032C0000030C000002EC000002CC00000D4
:100070002AC0000028C0000026C0000024C00000E4
:1000800022C0000020C000001EC0000011241FBEBE
:10009000CFEFD0E4DEBFCDBF11E0A0E0B1E0E2E5FC
:1000A000F6E000E00BBF02C007900D92A030B10750
:1000B000D9F721E0A0E0B1E001C01D92A132B20762
:1000C000E1F73DD0C4C29CCF80910001853079F426
:1000D000F8944091120150911301609114017091B4
:1000E00015018091160166D210920001789408954E
:1000F00082E081B984B987B98AB98FE39CE9019715
:10010000F1F700C00000E8E6F0E080818F608083B6
:10011000EBE6F0E0808181608083ECE6F0E08081B6
:1001200081608083EDE6F0E0808181608083E3E799
:10013000F0E0808184608083109281000895D8DF90
:10014000C8D17894C4E02FEF81EE94E02150804034
:100150009040E1F700C0000080910001813071F013
:1001600028F0823099F08330C9F01FC0119A20E541
:100170002A95F1F71198C093000117C0299A80E5DC
:100180008A95F1F72998C09300010FC0419A90E534
:100190009A95F1F74198C093000107C0599A20E55C
:1001A0002A95F1F75998C09300018EDFCCCF8130AA
:1001B0009105B1F11CF4892B49F008958230910525
:1001C00009F458C0039709F47FC00895009B08C044
:1001D000109285001092840081E080938100089540
:1001E00010928100609184007091850080E090E021
:1001F00060930101709302018093030190930401C5
:1002000020EE31E040E050E000D2DA01C901029670
:10021000A11DB11D80930E0181E08093000108951E
:10022000189B08C0109285001092840081E0809392
:100230008100089510928100609184007091850082
:1002400080E090E0609301017093020180930301CC
:100250009093040120EE31E040E050E0D6D1DA0185
:10026000C9010296A11DB11D80930E0182E0809309
:1002700000010895309B08C0109285001092840000
:1002800081E0809381000895109281006091840044
:100290007091850080E090E060930101709302010D
:1002A000809303019093040120EE31E040E050E0A0
:1002B000ACD1DA01C9010296A11DB11D80930E01D6
:1002C00083E080930001089589B1109281006091CC
:1002D00084007091850080E090E06093010170934C
:1002E0000201809303019093040120EE31E040E08D
:1002F00050E08BD1DA01C9010296A11DB11D809396
:100300000E0185E08093000108951F920F920FB6B1
:100310000F9211240BB60F922F933F934F935F933D
:100320006F937F938F939F93AF93BF93EF93FF93BD
:1003300080E090E03CDFFF91EF91BF91AF919F9102
:100340008F917F916F915F914F913F912F910F907E
:100350000BBE0F900FBE0F901F9018951F920F921B
:100360000FB60F9211240BB60F922F933F934F931A
:100370005F936F937F938F939F93AF93BF93EF930D
:10038000FF9381E090E013DFFF91EF91BF91AF9178
:100390009F918F917F916F915F914F913F912F919D
:1003A0000F900BBE0F900FBE0F901F9018951F92CD
:1003B0000F920FB60F9211240BB60F922F933F930B
:1003C0004F935F936F937F938F939F93AF93BF935D
:1003D000EF93FF9382E090E0EADEFF91EF91BF910F
:1003E000AF919F918F917F916F915F914F913F91CD
:1003F0002F910F900BBE0F900FBE0F901F9018956E
:100400001F920F920FB60F9211240BB60F922F93DB
:100410003F934F935F936F937F938F939F93AF938C
:10042000BF93EF93FF9383E090E0C1DEFF91EF91E4
:10043000BF91AF919F918F917F916F915F914F91FC
:100440003F912F910F900BBE0F900FBE0F901F90FA
:1004500018951F920F920FB60F92112410928100DF
:10046000109200010F900FBE0F901F9018951F92D1
:100470000F920FB60F9211240BB60F922F933F934A
:100480004F935F936F937F938F939F93AF93BF939C
:10049000EF93FF9329D0FF91EF91BF91AF919F917F
:1004A0008F917F916F915F914F913F912F910F901D
:1004B0000BBE0F900FBE0F901F901895FC019C0172
:1004C0002B5F3F4F80E091918927E217F307D9F71F
:1004D000089580E484B981E08AB9589880EC8CBD95
:1004E0008FEF80931B010895809105019091060183
:1004F000069721F5109206011092050158988091F7
:100500001B018F3F79F040911701509118016091C4
:10051000190170911A0180911B014CD08FEF8093CB
:100520001B01089540911C0150911D0160911E0115
:1005300070911F018091200113C00895E091050181
:10054000F0910601E95FFE4F80818EBD809105012B
:1005500090910601019690930601809305010895FC
:100560000F931F93CF93DF9300D000D01F92CDB78E
:10057000DEB749835A836B837C838D8307E011E068
:1005800089819A81AB81BC81F80180839183A283A8
:10059000B3838D818483C80191DFF8018583A4DF53
:1005A0000F900F900F900F900F90DF91CF911F91B0
:1005B0000F910895CF93DF9300D000D01F92CDB755
:1005C000DEB749835A836B837C838D831C9B0CC06D
:1005D000C7DF85E0FE013196ACE1B1E001900D92FC
:1005E0008A95E1F7589A09C085E0FE013196A7E1A6
:1005F000B1E001900D928A95E1F70F900F900F9066
:100600000F900F90DF91CF910895A1E21A2EAA1BAF
:10061000BB1BFD010DC0AA1FBB1FEE1FFF1FA217B2
:10062000B307E407F50720F0A21BB30BE40BF50BAF
:10063000661F771F881F991F1A9469F76095709538
:10064000809590959B01AC01BD01CF010895F89470
:02065000FFCFDA
:00000001FF
