:1000000045C0000053C0000051C000004FC00000B8
:1000100076C100009DC10000C4C10000EBC100001A
:1000200045C0000043C0000041C000003FC00000C8
:100030003DC000003BC0000039C0000004C2000009
:1000400035C0000033C0000031C000002FC00000E8
:100050002DC000002BC0000029C0000027C00000F8
:1000600025C0000023C0000021C000001FC0000008
:100070001DC000001BC0000019C0000017C0000018
:1000800015C0000013C0000011C0000011241FBEE5
:10009000CFEFD0E4DEBFCDBF21E0A0E0B1E001C0F2
:1000A0001D92A831B207E1F702D0FBC1A9CF82E0CF
:1000B00081B984B987B98AB98FE39CE90197F1F7CF
:1000C00000C00000E8E6F0E080818F608083EBE60E
:1000D000F0E0808181608083ECE6F0E080818160E7
:1000E0008083EDE6F0E0808181608083E3E7F0E0EB
:1000F00080818160808310928100789421E030E0DB
:10010000E6E0F1E09FEF41EE84E091504040804016
:10011000E1F700C000008091000190910101892B5E
:1001200079F4119A90E59A95F1F7119830930101BD
:10013000209300018FE39CE90197F1F700C00000D4
:1001400080819181A281B3814597A105B10510F409
:10015000419AD8CF4198D6CF81309105E9F11CF46E
:10016000892B49F008958230910509F466C0039700
:1001700009F494C00895009B08C010928500109265
:10018000840081E080938100089510928100609145
:1001900084007091850080E090E06093020170938C
:1001A0000301809304019093050120EE31E040E0CB
:1001B00050E055D1DA01C9010296A11DB11D80930D
:1001C000060190930701A0930801B09309011092D2
:1001D0000101109200010895189B08C0109285003B
:1001E0001092840081E08093810008951092810034
:1001F000609184007091850080E090E0609302013E
:1002000070930301809304019093050120EE31E087
:1002100040E050E024D1DA01C9010296A11DB11DD0
:100220008093060190930701A0930801B093090100
:1002300010920101109200010895309B08C01092A5
:1002400085001092840081E08093810008951092CF
:100250008100609184007091850080E090E060935F
:10026000020170930301809304019093050120EE35
:1002700031E040E050E0F3D0DA01C9010296A11D5F
:10028000B11D8093060190930701A0930801B093DC
:10029000090110920101109200010895489B08C0C5
:1002A000109285001092840081E08093810008956F
:1002B00010928100609184007091850080E090E050
:1002C00060930201709303018093040190930501F0
:1002D00020EE31E040E050E0C2D0DA01C9010296E0
:1002E000A11DB11D8093060190930701A093080101
:1002F000B0930901109201011092000108951F921C
:100300000F920FB60F9211240BB60F922F933F93BB
:100310004F935F936F937F938F939F93AF93BF930D
:10032000EF93FF9380E090E017DFFF91EF91BF9193
:10033000AF919F918F917F916F915F914F913F917D
:100340002F910F900BBE0F900FBE0F901F9018951E
:100350001F920F920FB60F9211240BB60F922F938C
:100360003F934F935F936F937F938F939F93AF933D
:10037000BF93EF93FF9381E090E0EEDEFF91EF916A
:10038000BF91AF919F918F917F916F915F914F91AD
:100390003F912F910F900BBE0F900FBE0F901F90AB
:1003A00018951F920F920FB60F9211240BB60F9251
:1003B0002F933F934F935F936F937F938F939F936D
:1003C000AF93BF93EF93FF9382E090E0C5DEFF9180
:1003D000EF91BF91AF919F918F917F916F915F91BD
:1003E0004F913F912F910F900BBE0F900FBE0F902A
:1003F0001F9018951F920F920FB60F9211240BB6F3
:100400000F922F933F934F935F936F937F938F93AD
:100410009F93AF93BF93EF93FF9383E090E09CDEB5
:10042000FF91EF91BF91AF919F918F917F916F91CC
:100430005F914F913F912F910F900BBE0F900FBE88
:100440000F901F9018951F920F920FB60F921124C4
:10045000109281000F900FBE0F901F901895A1E28F
:100460001A2EAA1BBB1BFD010DC0AA1FBB1FEE1F2E
:10047000FF1FA217B307E407F50720F0A21BB30B79
:10048000E40BF50B661F771F881F991F1A9469F7F5
:1004900060957095809590959B01AC01BD01CF0151
:0604A0000895F894FFCF5F
:00000001FF
