S01700004763634170706C69636174696F6E352E7372656357
S113000045C000004BC0000049C0000047C00000CC
S113001045C0000043C0000041C000003FC00000D4
S11300203DC000003BC0000039C0000037C00000E4
S113003035C0000033C0000031C000002FC00000F4
S11300402DC000002BC0000029C0000027C0000004
S113005025C0000023C0000021C000001FC0000014
S11300601DC000001BC0000019C0000017C0000024
S113007015C0000013C0000011C000000FC0000034
S11300800DC000000BC0000009C0000011241FBEF9
S1130090CFEFD0E4DEBFCDBF0ED036C0B1CF84B534
S11300A0816884BD85B58A6085BD80E184B984E0BA
S11300B081B97894089582E082B9F1DF83E787BD3E
S11300C08FE39CE90197F1F700C000008FEF87BD33
S11300D0EFE3FCE93197F1F700C0000017BCEFE350
S11300E0FCE93197F1F700C0000087BDEFE3FCE9BC
S11300F03197F1F700C0000017BCEFE3FCE931973A
S10F0100F1F700C00000E3CFF894FFCF3B
S9030000FC
