:1000000045C0000060C000005EC000005CC0000091
:100010005AC0000058C0000056C0000054C0000084
:1000200052C0000050C000004EC000004CC0000094
:100030004AC0000048C0000046C0000044C00000A4
:1000400042C0000040C000003EC00000EEC0000002
:100050003AC0000038C0000036C0000034C00000C4
:1000600032C0000030C000002EC000002CC00000D4
:100070002AC0000028C0000026C0000024C00000E4
:1000800022C0000020C000001EC0000011241FBEBE
:10009000CFEFD0E4DEBFCDBF11E0A0E0B1E0E0E6FD
:1000A000F2E000E00BBF02C007900D92A034B10750
:1000B000D9F721E0A0E4B1E001C01D92AA34B20753
:1000C000E1F7BDD0CBC09CCF84B1807F84B95E9A6C
:1000D0005B9882E08A95F1F700C0409A92E09A9589
:1000E000F1F700C083B18295807F92E09A95F1F795
:1000F00000C0409895E09A95F1F70000409A92E090
:100100009A95F1F700C093B192E09A95F1F700C08B
:10011000409895E09A95F1F700008823F4F25E98F4
:1001200084B18F6084B90895282F22952F708F7025
:10013000611102C05B9801C05B9A92E09A95F1F759
:1001400000C0409A95B1907F922B95B995E09A9511
:10015000F1F70000409895E09A95F1F70000409A79
:1001600095B1907F892B85B985E08A95F1F70000DC
:10017000409895E09A95F1F70000A6CF0895843154
:1001800070F4623031F0633031F0613029F4806412
:1001900003C08C5E01C08C5A60E08068C5CF0895B2
:1001A0000F931F93CF93DF93C82F2FEF86E791E034
:1001B000215080409040E1F700C0000084B18F6082
:1001C00084B9389A539A569A85B1807F85B94098F8
:1001D0005E985B9800C000C00000409A299A25E014
:1001E0002A95F1F70000409885E08A95F1F7000024
:1001F0006BDF60E08C2F8C6097DF60E088E294DF3B
:1002000060E080E491DFC0E0D1E000E411E061E073
:1002100089918ADFC017D107D1F760E080E0AFDFB6
:10022000DF91CF911F910F9108951F920F920FB6FA
:100230000F9211240F900FBE0F901F901895789475
:1002400083E0AEDF60E081E06FDF01D0FFCF80E4CC
:1002500084B980EC8CBD109244010895F894FFCFCE
:100260000C12120C000000000C1204081E0000000A
:100270000A15110A040000000305090B0B181800E9
:100280001F0E0E04040404040101050515151500D4
:100290000E11111F1F1F1F000000000000000000B2
:00000001FF
