S00B00007370692E73726563CD
S113000045C0000058C0000056C0000054C00000A5
S113001052C0000050C000004EC000004CC00000A0
S11300204AC0000048C0000046C0000044C00000B0
S113003042C0000040C000003EC000003CC00000C0
S11300403AC0000038C0000036C0000034C00000D0
S113005032C0000030C000002EC000002CC00000E0
S11300602AC0000028C0000026C0000024C00000F0
S113007022C0000020C000001EC000001CC0000000
S11300801AC0000018C0000016C0000011241FBED2
S1130090CFEFD0E4DEBFCDBF11E0A0E0B1E0EEEBE6
S11300A0F2E000E00BBF02C007900D92A634B10746
S11300B0D9F7E8D002C1A4CF84B1807F84B95E9A15
S11300C05B9882E08A95F1F700C02C9A92E09A95A9
S11300D0F1F700C083B18295807F92E09A95F1F7A1
S11300E000C02C9895E09A95F1F700002C9A92E0C4
S11300F09A95F1F700C093B192E09A95F1F700C098
S11301002C9895E09A95F1F700008823F4F25E9814
S113011084B18F6084B90895282F22952F708F7031
S1130120611102C05B9801C05B9A92E09A95F1F765
S113013000C02C9A95B1907F922B95B995E09A9531
S1130140F1F700002C9895E09A95F1F700002C9AAD
S113015095B1907F892B85B985E08A95F1F70000E8
S11301602C9895E09A95F1F70000A6CF08950F9387
S11301701F93CF93DF938C01FC0180818823E9F0E6
S1130180853291F4E8012196F80181818053883009
S113019018F461E0C1DF0BC061E085E2BDDF61E01E
S11301A0F8018181B9DF03C061E0B6DFE8018E01A7
S11301B00F5F1F4F89818111E3CFDF91CF911F9191
S11301C00F910895843170F4623031F0633031F06E
S11301D0613029F4806403C08C5E01C08C5A60E0F5
S11301E080689ACF08950F931F93CF93DF93C82FFE
S11301F02FEF86E791E0215080409040E1F700C066
S1130200000084B18F6084B9249A539A569A85B1B8
S1130210807F85B92C985E985B9800C000C0000070
S11302202C9A299A25E02A95F1F700002C9885E06C
S11302308A95F1F7000040DF60E08C2F8C606CDF62
S113024060E088E269DF60E080E466DFC0E0D1E07E
S113025000E411E061E089915FDFC017D107D1F7B5
S113026060E080E0AFDFDF91CF911F910F9108959F
S113027080E484B98CBD08958EBD0DB407FEFDCF16
S11302808EB50895CF93DF931F92CDB7DEB783E089
S1130290AADF60E081E040DFEBDF80E491E067DF2C
S11302A0198210E0812FE8DF89831F5F60E081E01D
S11102B033DFCE0101965BDFF5CFF894FFCF6C
S11302BE0C12120C000000000C1204081E000000A8
S11302CE0A15110A040000000305090B0B18180087
S11302DE1F0E0E0404040404010105051515150072
S11302EE0E11111F1F1F1F00000000000000000050
S10902FE536C61766500FB
S9030000FC
