S00B00007370692E73726563CD
S113000045C0000060C000005EC000005CC000008D
S11300105AC0000058C0000056C0000054C0000080
S113002052C0000050C000004EC000004CC0000090
S11300304AC0000048C0000046C0000044C00000A0
S113004042C0000040C000003EC00000C2C1000029
S11300503AC0000038C0000036C0000034C00000C0
S113006032C0000030C000002EC000002CC00000D0
S11300702AC0000028C0000026C0000024C00000E0
S113008022C0000020C000001EC0000011241FBEBA
S1130090CFEFD0E4DEBFCDBF11E0A0E0B1E0E4EAF1
S11300A0F4E000E00BBF02C007900D92A034B1074A
S11300B0D9F721E0A0E4B1E001C01D92AE37B20748
S11300C0E1F7AED1EDC19CCF84B1807F84B95E9A53
S11300D05B9882E08A95F1F700C0409A92E09A9585
S11300E0F1F700C083B18295807F92E09A95F1F791
S11300F000C0409895E09A95F1F70000409A92E08C
S11301009A95F1F700C093B192E09A95F1F700C087
S1130110409895E09A95F1F700008823F4F25E98F0
S113012084B18F6084B90895282F22952F708F7021
S1130130611102C05B9801C05B9A92E09A95F1F755
S113014000C0409A95B1907F922B95B995E09A950D
S1130150F1F70000409895E09A95F1F70000409A75
S113016095B1907F892B85B985E08A95F1F70000D8
S1130170409895E09A95F1F70000A6CF0895EF9284
S1130180FF920F931F93CF93DF9300D000D01F9261
S1130190CDB7DEB77B01FE01319625E0DF011D926C
S11301A02A95E9F7009751F035962AE030E0B90135
S11301B050D18293862F972F0097C9F7BFEFEB1684
S11301C0FB0669F4898181111DC0FE01329600E0AD
S11301D010E00F5F1F4F81918823D9F30FC005E012
S11301E010E00E191F090AC0F80181918F0161E026
S11301F0805D9ADF0E151F05B9F711C00530110592
S11302001CF00DC000E010E081E090E08C0F9D1F19
S1130210080F191F7E0196E0E90EF11CE5CF0F903F
S11302200F900F900F900F90DF91CF911F910F912E
S1130230FF90EF900895843170F4623031F06330B0
S113024031F0613029F4806403C08C5E01C08C5AA3
S113025060E0806869CF08950F931F93CF93DF9375
S1130260C82F2FEF86E791E0215080409040E1F7BE
S113027000C0000084B18F6084B9389A539A569AAA
S113028085B1807F85B940985E985B9800C000C0B6
S11302900000409A299A25E02A95F1F70000409839
S11302A085E08A95F1F700000FDF60E08C2F8C6009
S11302B03BDF60E088E238DF60E080E435DFC0E007
S11302C0D1E000E411E061E089912EDFC017D1078D
S11302D0D1F760E080E0AFDFDF91CF911F910F9104
S11302E0089580E484B980EC8CBD0895FC012081DC
S11302F06181862F90E0A0E0B0E0DC019927882797
S1130300B22B2381822B2281BC01CD01722B089553
S1130310CF92DF92EF92FF920F931F93CF93DF93CD
S113032000D000D0CDB7DEB700E611E0F80180813F
S11303309181A281B38189839A83AB83BC83CE01EB
S11303400196D4DF6B017C0160E081E0EDDE64E0C6
S113035070E0C60114DF10924101109240018EE159
S1130360E2E4F1E0DF01982F1D929A95E9F7D801B4
S11303701D928A95E9F70F900F900F900F90DF91DF
S1130380CF911F910F91FF90EF90DF90CF90089540
S11303908091400190914101049711F4B9CF0895DF
S11303A0E0914001F09141018EB5E05AFE4F808307
S11303B080914001909141019C012F5F3F4F309308
S11303C0410120934001FC01EE5BFE4F80818EBD14
S11303D008951F920F920FB60F9211240BB60F922D
S11303E02F933F934F935F936F937F938F939F9339
S11303F0AF93BF93EF93FF93CBDFFF91EF91BF9147
S1130400AF919F918F917F916F915F914F913F91A8
S11304102F910F900BBE0F900FBE0F901F90189549
S1130420789483E019DF60E081E07EDE5ADF80E0CB
S113043090E0DC0190E0ADE0BFE7E0E6F1E080832E
S11304409183A283B38380819181A281B38160DF90
S1130450FFCF97FB072E16F4009406D077FD08D043
S11304600BD007FC05D03EF4909581959F4F0895DD
S1130470709561957F4F0895AA1BBB1B51E107C07E
S1130480AA1FBB1FA617B70710F0A61BB70B881F20
S1130490991F5A95A9F780959095BC01CD010895AF
S10704A0F894FFCFFA
S11304A40C12120C000000000C1204081E000000C0
S11304B40A15110A040000000305090B0B1818009F
S11304C41F0E0E040404040401010505151515008A
S11304D40E11111F1F1F1F00000000000000000068
S9030000FC
