:1000000045C0000060C000005EC000005CC0000091
:1000100052C2000058C0000056C0000054C000008A
:1000200052C0000050C000004EC000004CC0000094
:100030004AC0000048C0000046C0000044C00000A4
:1000400042C0000040C000003EC0000005C10000EA
:100050003AC0000038C0000036C0000034C00000C4
:1000600032C0000030C000002EC000002CC00000D4
:100070002AC0000028C0000026C0000024C00000E4
:1000800022C0000020C00000BAC2000011241FBE20
:10009000CFEFD0E4DEBFCDBF11E0A0E0B1E0E0EFF4
:1000A000FAE000E00BBF02C007900D92A031B1074B
:1000B000D9F721E0A0E1B1E001C01D92A833B20759
:1000C000E1F7BDD113C59CCF80911E01089516168E
:1000D000170654F4FC01680F791F80E0919189277D
:1000E000E617F707D9F7089580E00895CF93DF93D7
:1000F000FC018081C6E1D1E0888362E070E0CE013E
:10010000E6DF898388818EBDDF91CF910895FC0160
:10011000A2E1B1E08C91808311968C91119781833B
:1001200012968C9182830895CF93DF931F92CDB75F
:10013000DEB789831C9B06C080931D01CE0101960A
:10014000D5DF03C0898180931C010F90DF91CF918F
:100150000895CF93DF93EC0110921E0163E070E0ED
:1001600082E191E0B4DF90911501891302C0CE01C4
:10017000CEDF8091000090910100A0910200B0912B
:1001800003008093120190931301A0931401B09384
:100190001501DF91CF910895269A8CB5806C8CBDA6
:1001A000589810921E018FEF80931C010895809142
:1001B000100190911101019690931101809310010B
:1001C0008091100190911101049764F180911001C8
:1001D00090911101029734F1E0911001F091110119
:1001E0008EB5EF5EFE4F808381E080931E011092FA
:1001F00011011092100180910000909101009093E4
:1002000017018093160180911C018F3F39F08CE11A
:1002100091E06CDF8FEF80931C0108958DE191E0F8
:1002200065CF0895E0911001F09111018EB5EF5E58
:10023000FE4F8083809110019091110102971CF074
:100240008FEF8EBD0895E0911001F0911101EA5EEB
:10025000FE4F80818EBD08951F920F920FB60F92B0
:1002600011240BB60F922F933F934F935F936F938D
:100270007F938F939F93AF93BF93EF93FF9397DFFA
:10028000FF91EF91BF91AF919F918F917F916F916E
:100290005F914F913F912F910F900BBE0F900FBE2A
:1002A0000F901F901895E0E9F0E0808188608083CE
:1002B000E1E9F0E0808184608083109295001092E3
:1002C0009400E1E7F0E08081816080830895559A91
:1002D000549AE0E8F0E08081826A8083E1E8F0E00F
:1002E00080818A61808380E49CE990938700809379
:1002F000860088EB9BE090932701809326019093E2
:100300003701809336019093890080938800809113
:1003100036019091370190938B0080938A00119A57
:100320002FEF83E294EF215080409040E1F700C02E
:100330000000119808958EEF81B9E8E6F0E0808121
:1003400081608083EBE6F0E08081816080831092A1
:1003500018011092190110921A0110921B010895B0
:1003600080912401853B98F490E09C01220F331F7B
:10037000880F991F880F991F880F991F820F931F4D
:100380008C5C974F909327018093260108C08A3593
:1003900031F488EB9BE090932701809326018091B4
:1003A0002301853640F090E0885F934F90933701AA
:1003B000809336010895843640F490E08056954F3E
:1003C00090933701809336010895843631F488EB99
:1003D0009BE090933701809336010895CF92DF928E
:1003E000EF92FF92C0900001D0900101E0900201D5
:1003F000F09003016091360170913701072E000CD7
:10040000880B990B3AD2A701960137D120910401AC
:10041000309105014091060150910701BAD2A70120
:1004200096012CD160930001709301018093020129
:1004300090930301FF90EF90DF90CF90089547DFF6
:100440007ADFAADE30DF789408E810E0CAE8D0E06E
:1004500080912C0180932D0167DE36DE8823B9F070
:1004600083E291E076DE6091250170E080E090E02B
:1004700002D220E030E04AE754E464D16093040102
:1004800070930501809306019093070169DFA6DF51
:100490008091260190912701F801918380836091DA
:1004A0000001709101018091020190910301B2D18C
:1004B00079836883CDCF1F920F920FB60F921124CC
:1004C0000BB60F92CF92DF92EF92FF922F933F9352
:1004D0004F935F936F937F938F939F93AF93BF934C
:1004E000EF93FF93009B74C0119B02C0119801C051
:1004F000119AE4E9F0E080819181A0E0B0E080937E
:100500002E0190932F01A0933001B09331012091DF
:1005100018013091190140911A0150911B0160910D
:100520000C0170910D0180910E0190910F01C0900E
:100530002E01D0902F01E0903001F09031018CD24B
:10054000C60ED71EE81EF91EC0923201D0923301AA
:10055000E0923401F0923501209132013091330163
:100560004091340150913501609108017091090169
:1005700080910A0190910B016FD260931F017093DB
:100580002001809321019093220110921801109272
:10059000190110921A0110921B0111821082809190
:1005A0001F0190912001A0912101B09122019C0195
:1005B000AD01220F331F441F551F220F331F441F4D
:1005C000551F60E077E883E993E055D220932C0132
:1005D000FF91EF91BF91AF919F918F917F916F911B
:1005E0005F914F913F912F91FF90EF90DF90CF90CF
:1005F0000F900BBE0F900FBE0F901F9018951F927B
:100600000F920FB60F9211248F939F93AF93BF93C6
:10061000129B02C0129801C0129A80911801909109
:100620001901A0911A01B0911B010196A11DB11DE4
:100630008093180190931901A0931A01B0931B01A4
:100640008091180190911901A0911A01B0911B019C
:100650000297A105B10540F010922C0181E090E0D5
:1006600090932B0180932A01BF91AF919F918F911D
:100670000F900FBE0F901F9018955058BB27AA27B8
:100680000ED04DC13ED130F043D120F031F49F3F28
:1006900011F41EF433C10EF4E095E7FB29C1E92FF4
:1006A0004FD180F3BA17620773078407950718F0D4
:1006B00071F49EF567C10EF4E0950B2EBA2FA02DB4
:1006C0000B01B90190010C01CA01A0011124FF27FF
:1006D000591B99F0593F50F4503E68F11A16F040FA
:1006E000A22F232F342F4427585FF3CF46953795F9
:1006F0002795A795F0405395C9F77EF41F16BA0BBE
:10070000620B730B840BBAF09150A1F0FF0FBB1F6B
:10071000661F771F881FC2F70EC0BA0F621F731FB4
:10072000841F48F4879577956795B795F7959E3F11
:1007300008F0B3CF9395880F08F09927EE0F97959F
:10074000879508950CD0EBC0E3D040F0DAD030F0BC
:1007500021F45F3F19F0CCC0511115C1CFC0F0D0CA
:1007600098F39923C9F35523B1F3951B550BBB2778
:10077000AA2762177307840738F09F5F5F4F220F25
:10078000331F441FAA1FA9F333D00E2E3AF0E0E81E
:1007900030D091505040E695001CCAF729D0FE2F6A
:1007A00027D0660F771F881FBB1F261737074807FC
:1007B000AB07B0E809F0BB0B802DBF01FF279358B2
:1007C0005F4F2AF09E3F510568F092C0DCC05F3F4A
:1007D000ECF3983EDCF3869577956795B795F7959A
:1007E0009F5FC9F7880F911D9695879597F9089592
:1007F000E1E0660F771F881FBB1F6217730784072E
:10080000BA0720F0621B730B840BBA0BEE1F88F73C
:10081000E095089504D06894B111B5C0089598D0BA
:1008200088F09F5790F0B92F9927B751A0F0D1F0D9
:10083000660F771F881F991F1AF0BA95C9F712C063
:10084000B13081F09FD0B1E008959CC0672F782F20
:100850008827B85F39F0B93FCCF3869577956795CF
:10086000B395D9F73EF490958095709561957F4F3B
:100870008F4F9F4F0895E89409C097FB3EF49095E1
:100880008095709561957F4F8F4F9F4F9923A9F069
:10089000F92F96E9BB279395F695879577956795F8
:1008A000B795F111F8CFFAF4BB0F11F460FF1BC03C
:1008B0006F5F7F4F8F4F9F4F16C0882311F096E9CF
:1008C00011C0772321F09EE8872F762F05C066237D
:1008D00071F096E8862F70E060E02AF09A95660F36
:1008E000771F881FDAF7880F9695879597F90895EF
:1008F00097F99F6780E870E060E008959FEF80ECD3
:10090000089500240A941616170618060906089575
:1009100000240A9412161306140605060895092EDB
:100920000394000C11F4882352F0BB0F40F4BF2B4A
:1009300011F460FF04C06F5F7F4F8F4F9F4F08958A
:1009400057FD9058440F551F59F05F3F71F0479580
:10095000880F97FB991F61F09F3F79F08795089565
:10096000121613061406551FF2CF4695F1DF08C084
:10097000161617061806991FF1CF869571056105A1
:1009800008940895E894BB2766277727CB0197F949
:1009900008950BD0C4CFB5DF28F0BADF18F0952347
:1009A00009F0A6CFABCF1124EECFCADFA0F3959FFD
:1009B000D1F3950F50E0551F629FF001729FBB2746
:1009C000F00DB11D639FAA27F00DB11DAA1F649FF2
:1009D0006627B00DA11D661F829F2227B00DA11DA5
:1009E000621F739FB00DA11D621F839FA00D611D2B
:1009F000221F749F3327A00D611D231F849F600D4C
:100A0000211D822F762F6A2F11249F5750408AF084
:100A1000E1F088234AF0EE0FFF1FBB1F661F771F10
:100A2000881F91505040A9F79E3F510570F060CF4C
:100A3000AACF5F3FECF3983EDCF3869577956795F8
:100A4000B795F795E7959F5FC1F7FE2B880F911D2E
:100A50009695879597F90895DB018F939F932DD0F5
:100A6000BF91AF91A29F800D911DA39F900DB29F4A
:100A7000900D11240895A1E21A2EAA1BBB1BFD01A3
:100A80000DC0AA1FBB1FEE1FFF1FA217B307E4076D
:100A9000F50720F0A21BB30BE40BF50B661F771FC5
:100AA000881F991F1A9469F76095709580959095A5
:100AB0009B01AC01BD01CF01089509D0A59F900D08
:100AC000B49F900DA49F800D911D11240895A29FA5
:100AD000B001B39FC001A39F700D811D1124911D12
:100AE000B29F700D811D1124911D0895F894FFCFC0
:100AF00000803B456F12833A1000000000000100A7
:00000001FF
