S01B00006D6F746F726D6F64756C5F7370695F746573742E73726563ED
S113000045C0000060C000005EC000005CC000008D
S11300105AC0000058C0000056C0000054C0000080
S113002052C0000050C000004EC000004CC0000090
S11300304AC0000048C0000046C0000044C00000A0
S113004042C0000040C000003EC0000015C10000D6
S11300503AC0000038C0000036C0000034C00000C0
S113006032C0000030C000002EC000002CC00000D0
S11300702AC0000028C0000026C0000024C00000E0
S113008022C0000020C000001EC0000011241FBEBA
S1130090CFEFD0E4DEBFCDBF11E0A0E0B1E0EAECE9
S11300A0F2E000E00BBF02C007900D92A030B10750
S11300B0D9F721E0A0E0B1E001C01D92AA30B20757
S11300C0E1F702D000C19CCFCF93DF9300D0CDB72E
S11300D0DEB76DD078948AE23ED008D08823E9F365
S11300E01A821982CE0101964CD0F7CF8091090172
S11300F008951616170654F4FC01680F791F80E062
S113010091918927E617F707D9F7089580E00895B4
S1130110CF93DF93FC018081C5E0D1E0888362E066
S113012070E0CE01E6DF898388818EBD8091000175
S11301309091010101969093010180930001DF9158
S1130140CF910895E2E0F1E02081DC012C9321813C
S113015011962C930895CF93DF931F92CDB7DEB7FA
S113016089831C9B07C080930801CE010196D0DFD0
S1130170589A03C08981809307010F90DF91CF9132
S11301800895CF93DF93EC011092090162E070E0CF
S113019082E091E0AEDF90910401891303C0CE01A7
S11301A0D1DF02C08FEF8883DF91CF91089580E47F
S11301B084B980EC8CBD81E08AB958981092090109
S11301C08FEF8093070108958091000190910101C0
S11301D003977CF1809100019091010102974CF109
S11301E0E0910001F09101018EB5EF5FFE4F808335
S11301F0589881E080930901109201011092000146
S1130200809107018F3F89F087E091E081DF809141
S113021000019091010101969093010180930001E6
S1130220589A8FEF80930701089588E091E070CF8A
S11302300895E0910001F09101018EB5EF5FFE4F4A
S11302408083809100019091010102971CF08FEF4F
S11302508EBD08C0E0910001F0910101EB5FFE4FFB
S113026080818EBD8091000190910101019690934F
S113027001018093000108951F920F920FB60F920F
S113028011240BB60F922F933F934F935F936F9369
S11302907F938F939F93AF93BF93EF93FF9394DFD9
S11302A0FF91EF91BF91AF919F918F917F916F914A
S11302B05F914F913F912F910F900BBE0F900FBE06
S10D02C00F901F901895F894FFCFDB
S9030000FC
