:1000000045C0000053C0000051C000004FC00000B8
:100010004DC000004BC0000049C00000C6C0000039
:1000200045C0000043C0000041C000003FC00000C8
:100030003DC000003BC0000039C00000DDC0000032
:1000400035C0000033C0000031C000002FC00000E8
:100050002DC000002BC0000029C0000027C00000F8
:1000600025C0000023C0000021C000001FC0000008
:100070001DC000001BC0000019C0000017C0000018
:1000800015C0000013C0000011C0000011241FBEE5
:10009000CFEFD0E4DEBFCDBF21E0A0E0B1E001C0F2
:1000A0001D92AC30B207E1F702D0D2C1A9CF80E1F6
:1000B0008AB98FE39CE90197F1F700C0000082E064
:1000C00081B98FE39CE90197F1F700C00000589ACD
:1000D000E8E6F0E0808188608083E3E7F0E08081FB
:1000E0008160808310928100EFE6F0E08081816082
:1000F00080837894C1E0D0E08FE39CE90197F1F729
:1001000000C000008091000190910101892B49F409
:100110005C9A90E59A95F1F75C98D0930101C093B1
:10012000000120E030E040EF51E460910601709161
:10013000070180910801909109016CD0882314F483
:10014000119ADACF1198D8CF489B08C01092850039
:100150001092840081E080938100089510928100C4
:10016000609184007091850080E090E0BFD0609342
:100170000201709303018093040190930501109292
:100180000B0110920A0120E030E048E652E446D02C
:100190006093060170930701809308019093090111
:1001A000109201011092000108951F920F920FB654
:1001B0000F9211240BB60F922F933F934F935F939F
:1001C0006F937F938F939F93AF93BF93EF93FF931F
:1001D000BBDFFF91EF91BF91AF919F918F917F9185
:1001E0006F915F914F913F912F910F900BBE0F90A8
:1001F0000FBE0F901F9018951F920F920FB60F927F
:10020000112410920101109200010F900FBE0F9067
:100210001F901895A8D008F481E008950CD0DEC096
:10022000D6D040F0CDD030F021F45F3F19F0BFC000
:10023000511108C1C2C0E3D098F39923C9F35523E3
:10024000B1F3951B550BBB27AA27621773078407C9
:1002500038F09F5F5F4F220F331F441FAA1FA9F37F
:1002600033D00E2E3AF0E0E830D091505040E69571
:10027000001CCAF729D0FE2F27D0660F771F881FD2
:10028000BB1F261737074807AB07B0E809F0BB0BC1
:10029000802DBF01FF2793585F4F2AF09E3F5105E5
:1002A00068F085C0CFC05F3FECF3983EDCF38695E5
:1002B00077956795B795F7959F5FC9F7880F911D5B
:1002C0009695879597F90895E1E0660F771F881F47
:1002D000BB1F621773078407BA0720F0621B730BFA
:1002E000840BBA0BEE1F88F7E0950895E89409C0D7
:1002F00097FB3EF490958095709561957F4F8F4F59
:100300009F4F9923A9F0F92F96E9BB279395F6956E
:10031000879577956795B795F111F8CFFAF4BB0FEC
:1003200011F460FF1BC06F5F7F4F8F4F9F4F16C050
:10033000882311F096E911C0772321F09EE8872FDA
:10034000762F05C0662371F096E8862F70E060E096
:100350002AF09A95660F771F881FDAF7880F96950F
:10036000879597F90895990F0008550FAA0BE0E8B3
:10037000FEEF16161706E807F907C0F01216130667
:10038000E407F50798F0621B730B840B950B39F4A7
:100390000A2661F0232B242B252B21F408950A260D
:1003A00009F4A140A6958FEF811D811D089597F94D
:1003B0009F6780E870E060E008959FEF80EC08950B
:1003C00000240A9416161706180609060895002434
:1003D0000A9412161306140605060895092E0394AE
:1003E000000C11F4882352F0BB0F40F4BF2B11F422
:1003F00060FF04C06F5F7F4F8F4F9F4F089557FD81
:100400009058440F551F59F05F3F71F04795880F82
:1004100097FB991F61F09F3F79F087950895121619
:1004200013061406551FF2CF4695F1DF08C01616C5
:1004300017061806991FF1CF869571056105089476
:100440000895E894BB2766277727CB0197F908958D
:04045000F894FFCF4E
:00000001FF
