S011000054696D6572546573742E7372656372
S113000045C0000058C0000056C0000054C00000A5
S113001052C0000050C000004EC000004CC00000A0
S11300204AC0000048C0000046C0000044C00000B0
S113003042C0000040C000003EC000003CC00000C0
S11300403AC0000038C0000036C0000034C00000D0
S113005032C0000030C000002EC000002CC00000E0
S11300602AC0000028C0000026C0000024C00000F0
S113007022C0000020C000001EC000001CC0000000
S11300801AC0000018C0000016C0000011241FBED2
S1130090CFEFD0E4DEBFCDBF11E0A0E0B1E0E0EFF0
S11300A0F2E000E00BBF02C007900D92A034B1074C
S11300B0D9F7E0D01BC1A4CF84B1807F84B95E9A04
S11300C05B9800002C9A000083B18295807F000029
S11300D02C9800002C9A000093B100002C9800008A
S11300E0882384F35E9884B18F6084B90895282F9F
S11300F022952F708F70611102C05B9801C05B9ACA
S113010000002C9A95B1907F922B95B900002C9801
S113011000002C9A95B1907F892B85B900002C980A
S11301200000CACF0895EF92FF920F931F93CF93CD
S1130130DF9300D000D01F92CDB7DEB77B01FE0164
S1130140319625E0DF011D922A95E9F7009751F0D9
S113015035962AE030E0B901A2D08293862F972FFA
S11301600097C9F7BFEFEB16FB0669F4898181118B
S11301701DC0FE01329600E010E00F5F1F4F819119
S11301808823D9F30FC005E010E00E191F090AC037
S1130190F80181918F0161E0805DA9DF0E151F05D3
S11301A0B9F711C0053011051CF00DC000E010E0D6
S11301B081E090E08C0F9D1F080F191F7E0196E0CF
S11301C0E90EF11CE5CF0F900F900F900F900F9058
S11301D0DF91CF911F910F91FF90EF90089584319B
S11301E070F4623031F0633031F0613029F48064AE
S11301F003C08C5E01C08C5A60E0806878CF08959B
S11302000F931F93CF93DF93C82F8BE49DE1019746
S1130210F1F700C0000084B18F6084B9249A539A26
S1130220569A85B1807F85B92C985E985B980000BA
S11302302C9A299A00002C9800003EDF60E08C2F55
S11302408C6055DF60E088E252DF60E080E44FDFDD
S1130250C0E0D1E000E411E061E0899148DFC0171B
S1130260D107D1F760E080E0BADFDF91CF911F9131
S11302700F91089582E0C4DF60E081E038DF16BCAE
S113028085B5856085BD86B5E3ECF9E03197F1F776
S113029000C0000064E070E090E045DFF4CF97FB1D
S11302A0072E16F4009406D077FD08D00BD007FC77
S11302B005D03EF4909581959F4F08957095619572
S11302C07F4F0895AA1BBB1B51E107C0AA1FBB1F88
S11302D0A617B70710F0A61BB70B881F991F5A95CE
S11302E0A9F780959095BC01CD010895F894FFCFAE
S11302F00C12120C000000000C1204081E00000076
S11303000A15110A040000000305090B0B18180054
S11303101F0E0E040404040401010505151515003F
S11303200E11111F1F1F1F0000000000000000001D
S9030000FC
