S0170000547269676765726F6E6368616E67652E73726563F6
S113000045C0000053C0000051C000004FC00000B4
S11300106DC000004BC0000049C0000047C0000094
S113002045C0000043C0000041C000003FC00000C4
S11300303DC000003BC0000039C0000037C00000D4
S113004035C0000033C0000068C000002FC00000AD
S11300502DC000002BC0000029C0000027C00000F4
S113006025C0000023C0000021C000001FC0000004
S11300701DC000001BC0000019C0000017C0000014
S113008015C0000013C0000011C0000011241FBEE1
S1130090CFEFD0E4DEBFCDBF21E0A0E0B1E001C0EE
S11300A01D92A430B207E1F70ED062C0A9CF85B586
S11300B0836085BD81E084BD16BCEEE6F0E08081FE
S11300C08160808308958EEF81B9E8E6F0E0808155
S11300D081608083EBE6F0E0808181608083E7DFEC
S11300E010920101109200017894FFCF1F920F9299
S11300F00FB60F9211248F939F93809100019091DA
S11301000101019690930101809300019F918F91C9
S11301100F900FBE0F901F9018951F920F920FB65D
S11301200F9211242F933F934F938F939F9320917A
S113013000013091010148E7429FC001439F900DA7
S113014011249093030180930201109201011092F3
S11301500001129B02C0129801C0129A9F918F91C4
S11301604F913F912F910F900FBE0F901F901895B4
S1070170F894FFCF2D
S9030000FC
